:10000000F52F262F292F2C2F2F2F322F352F382F3A
:100010003B2F3E2F412F442F472F4A2F4D2F502F3C
:10002000532F562F592F5C2F5F2F622F652F682F6C
:100030006B2F6E2F712F742F772F7A2F7D2F802F9C
:10004000832F862F892F8C2F8F2F922F952F982FCC
:100050009B2F9E2FA12FA42FA72FAA2FAD2FB02FFC
:10006000B32FB62FB92FBC2FBF2FC22FC52FC82F2C
:10007000CB2FCE2FD12FD42FD72FDA2FDD2FE02F5C
:10008000E32FB42EB42EB52EB62EB62EB72EB72E25
:10009000B82EB92EBA2EBB2EBC2EBD2EBE2EBF2E14
:1000A000C02EC12EC12EC12EC22EC32EC32EC42ED1
:1000B000C52EC62EC72EC82EC82EC92E032FCB2E56
:1000C000CB2ECC2ECD2ECE2ED02ED22ED22ED32E47
:1000D000D52ED62ED62ED82EDA2EDB2EDD2EDE2EE7
:1000E000E02EE22EE42EE62EE72E032F032FE82E3D
:0E00F000EA2EEC2EEE2EEE2EF02EF02EF02E3E
:10092E0064008001840A0406031900340406982C1E
:10093E0083120313851BA42CD32483120313051BCC
:10094E000800E52408009F24FB3083120313850062
:10095E004E088600F72483120313851508008312B0
:10096E0003134E083605B6004F083705B7000319B6
:10097E00080043260800FF3083120313A207031852
:10098E00A30AFF30A30722082304031D0800033027
:10099E00F2040030F30408007218080083120313E7
:1009AE004F0D4F0CCF004E0CCE000330F200003036
:1009BE00F3004D08A3004C08A200080072180800AE
:1009CE000310831203134E0DCE004F0DCF000330D4
:1009DE00F2040030F3044D08A3004C08A2000800F6
:1009EE00033083120313C6000030C7000330C40067
:1009FE000030C500460847040319122DFF30C60704
:100A0E000318C70AFF30C707012DFF30C4070318AC
:100A1E00C50AFF30C50744084504031908000C2D0C
:100A2E00F001F1017108803AFF0080307F02031D52
:100A3E00222D073070020318372D1F27F72401309F
:100A4E00F0070318F10A0030F1077108803AFF0031
:100A5E0080307F02031D352D07307002031C242DBC
:100A6E001F27F72443260800F7308316031385004B
:100A7E0008308312031385008601F401F501C201CB
:100A8E00C301C001C101BE01BF01BC01BD01BA015C
:100A9E00BB01B801B901B601B701F201F301F601CC
:100AAE00D0011030CE000030CF000830CC00003026
:100ABE00CD000130FC000030FD000A30CA000030CD
:100ACE00CB003230C8000030C90008008316031373
:100ADE008601F0308500F030831203138600850105
:100AEE003B258312031385151030FB007B08D000C5
:100AFE0017250830FB007B0883120313D00017253F
:100B0E0083120313D0011725DF25A125942D013063
:100B1E0083120313A0000030A10083120313851F5C
:100B2E009A2D051B8E2D20032104031D782DA00167
:100B3E00A101782D750883120313B5007408B40053
:100B4E004308B3004208B2004108B1004008B000AB
:100B5E003F08AF003E08AE003D08AD003C08AC00BB
:100B6E003B08AB003A08AA003908A9003808A800CB
:100B7E00AE26831203133508C3003408C2003308AF
:100B8E00C1003208C0003108BF003008BE002F0877
:100B9E00BD002E08BC002D08BB002C08BA002B0887
:100BAE00B9002A08B8002908B7002808B6000800BE
:100BBE00831203134B08A5004A08A400AA2483122B
:100BCE0003132408250403190800083083120313A5
:100BDE00850074088600F7248312031386010930FA
:100BEE00850042088600F7248312031386010A301B
:100BFE00850040088600F7248312031386010B300C
:100C0E0085003E088600F7248312031386010C30FC
:100C1E0085003C088600F7248312031386010D30ED
:100C2E0085003A088600F7248312031386010E30DE
:100C3E00850038088600F7248312031386010F30CF
:100C4E00850036088600F7248312031386010230CE
:100C5E007205F90000307305FA0079037A04031D5A
:100C6E003A2EC224B624FF3083120313A4070318AE
:100C7E00A50AFF30A507E62D83120313860108305F
:100C8E0086007C18D001FC1C502E0830F800780825
:100C9E00D0007C1D562E1030F8007808D000FC1DB8
:100CAE005C2E1830F8007808D0007C1E622E2030A2
:100CBE00F8007808D000FC1E682E2830F80078085E
:100CCE00D0007C1F6E2E3030F8007808D000FC1F4C
:100CDE00742E3830F8007808D000FF30C80703189B
:100CEE00C90AFF30C9074808490403199F2EF001AD
:100CFE00F1017108803AFF0080307F02031D892EBA
:100D0E000730700203189D2E1F270130F0070318BD
:100D1E00F10A0030F1077108803AFF0080307F023F
:100D2E00031D9B2E07307002031C8B2E1F27432E94
:100D3E00013083120313C8000030C900851BA82E92
:100D4E003B2583120313051B08003B25080076087C
:100D5E00013EF9007908F600F52EEE2EE22EE42E75
:100D6E00EC2EEA2EEC2EE42ED02EE02EDE2EE02EF1
:100D7E00DB2EF02ED62ED32EEE2ED02ECE2ED02E25
:100D8E00EE2ED82EBD30F12ED82EEE2ED02EE730F0
:100D9E00F12EC330F12EEE2E9130F12EF02EB93011
:100DAE00F12E9930F12EEE2E8330F12EE02E8F3073
:100DBE00F12E8730F12EC130F12EE130F12EEC2ED6
:100DCE00EA2EFD30F12EF930F12EF130F12E813078
:100DDE00F12EB130F4000030F500032F7608FF3EFF
:100DEE00031C042F84003E3004020318032F00302E
:100DFE008A0041300407820003107C0DFC007D0D3B
:100E0E00FD000830831203138500F72483120313A9
:100E1E0085017C1F142F43261C2FFF3083120313D2
:100E2E00CA070318CB0AFF30CB07F601F60A0800F3
:100E3E000130F700770883120313D007E62F18301E
:100E4E0086000800383086000800783086000800DA
:100E5E00183086000800183086000800183086000A
:100E6E0008007E30860008007E308600080038308C
:100E7E00860008007C3086000800C6308600080018
:100E8E000C308600080018308600080030308600CE
:100E9E0008007E3086000800FE30860008003C30D8
:100EAE00860008007E3086000800063086000800A6
:100EBE003E30860008003E30860008000630860070
:100ECE0008007E30860008003C3086000800663040
:100EDE00860008006630860008006630860008002E
:100EEE006630860008007E30860008003E308600A0
:100EFE0008000630860008000630860008007E30A6
:100F0E00860008007E3086000800603086000800EB
:100F1E007C30860008007E30860008000630860091
:100F2E0008007E30860008007C30860008003E30C7
:100F3E00860008007E3086000800603086000800BB
:100F4E007C30860008007E30860008006630860001
:100F5E0008007E30860008003C30860008007F3096
:100F6E00860008007F3086000800033086000800E7
:100F7E000630860008000C30860008001830860007
:100F8E0008003030860008006030860008003C30D3
:100F9E0086000800423086000800A5308600080052
:100FAE00813086000800A530860008009930860042
:100FBE0008004230860008003C30860008005008C9
:100FCE00FF3E031C08008400403004020318080092
:100FDE0000308A000130040782000800703084005F
:100FEE007730972483132030840048309724830170
:020FFE006D2D57
:02400E00F9FFB8
:00000001FF
